S01300004156525F447269766572732E73726563EA
S11300000C942A000C9447000C9447000C9447006D
S11300100C9447000C9447000C9447000C94470040
S11300200C9447000C9447000C9447000C9416045D
S11300300C9447000C9447000C9447000C94470020
S11300400C9447000C9447000C9447000C94470010
S11300500C94470011241FBECFE5D8E0DEBFCDBF0E
S113006010E0A0E6B0E0EAE1FCE002C005900D92E9
S1130070A038B107D9F720E0A0E8B0E001C01D9294
S1130080A539B207E1F70E9450000C940B060C94BA
S1130090000087E10E9400028CE10E9400020895A2
S11300A0CF93DF9300D0CDB7DEB719821A820E94B6
S11300B09A0060E087E10E943A0161E08CE10E94CD
S11300C03A0162E080E00E944E027894BE016F5FC4
S11300D07F4F80E00E94AD01BE016E5F7F4F8AE0DA
S11300E00E94AD018981811115C009E410E020E46A
S11300F032E44FE050E060E070E090E00E94C5021E
S113010006C0BE016F5F7F4F80E00E94AD01898110
S11301108823B9F38A818130C9F60E94E70306C0B7
S1130120BE016E5F7F4F8AE00E94AD018A818130FB
S1130130B9F3CCCF80E097C0982F96959695969575
S1130140282F2770943008F093C0913049F138F08B
S1130150923009F446C0933009F464C083C06AB392
S113016041E050E0FA0102C0EE0FFF1F2A95E2F7CA
S11301709F019E2F9095462F49234ABB4BB394234E
S11301809BBBE82FF0E0E05AFF4F9081911104C02F
S11301909AB3292B2ABB66C09BB3292B2BBB62C005
S11301A067B341E050E0FA0102C0EE0FFF1F2A9549
S11301B0E2F79F019E2F9095462F492347BB48B3F2
S11301C0942398BBE82FF0E0E05AFF4F90819111FF
S11301D004C097B3292B27BB45C098B3292B28BB50
S11301E041C064B341E050E0FA0102C0EE0FFF1FCA
S11301F02A95E2F79F019E2F9095462F492344BBF1
S113020045B3942395BBE82FF0E0E05AFF4F90816B
S1130210911104C094B3292B24BB24C095B3292B7A
S113022025BB20C061B341E050E0FA0102C0EE0FEB
S1130230FF1F2A95E2F79F019E2F9095462F492391
S113024041BB42B3942392BBE82FF0E0E05AFF4F46
S11302509081911104C091B3292B21BB03C092B3A7
S1130260292B22BB8F5F803208F466CF81E008958A
S113027080E00895982F969596959695282F277047
S1130280943008F05CC0E82FF0E0E05AFF4F808122
S1130290811157C09130D1F028F0923051F1933050
S11302A0D9F151C03BB381E090E002C0880F991F9F
S11302B02A95E2F7282F209523232BBB662309F4E4
S11302C044C09BB3892B8BBB81E0089538B381E094
S11302D090E002C0880F991F2A95E2F7282F2095F5
S11302E0232328BB662399F198B3892B88BB81E02B
S11302F0089535B381E090E002C0880F991F2A95D4
S1130300E2F7282F2095232325BB662311F195B30B
S1130310892B85BB81E0089532B381E090E002C06F
S1130320880F991F2A95E2F7282F2095232322BBB3
S1130330662389F092B3892B82BB81E0089580E023
S1130340089580E0089581E0089581E0089581E0B2
S1130350089581E0089581E00895982F96959695E3
S11303609695282F2770943008F042C0E82FF0E0CB
S1130370E05AFF4F80818823E9F161157105E1F1AD
S1130380913091F028F09230D9F0933029F136C0B1
S113039089B390E002C0959587952A95E2F781701C
S11303A0FB01808381E0089586B390E002C09595B7
S11303B087952A95E2F78170FB01808381E0089597
S11303C083B390E002C0959587952A95E2F78170F2
S11303D0FB01808381E0089580B390E002C095958D
S11303E087952A95E2F78170FB01808381E0089567
S11303F080E0089580E0089580E0089581E0089504
S1130400982F969596959695282F2770943008F0F6
S11304103FC0E82FF0E0E05AFF4F808181113AC0DD
S1130420913091F028F09230D9F0933029F134C012
S11304303BB381E090E002C0880F991F2A95E2F750
S113044083278BBB81E0089538B381E090E002C03C
S1130450880F991F2A95E2F7832788BB81E00895C6
S113046035B381E090E002C0880F991F2A95E2F726
S1130470832785BB81E0089532B381E090E002C018
S1130480880F991F2A95E2F7832782BB81E008959C
S113049080E0089580E0089581E00895813069F056
S11304A028F0823089F08330B1F05CC083B78F7B51
S11304B083BF83B7877F83BF14C083B7806483BF40
S11304C083B7877F83BF0DC083B78F7B83BF83B719
S11304D0886083BF06C083B7806483BF83B78860A6
S11304E083BF83B7887F83BF83B7862B83BF623084
S11304F0C9F028F4662349F0613069F035C06430EE
S113050009F1C0F0653031F12FC0109281001092D2
S1130510800081E0089581E090E0909381008093D1
S11305208000089588E090E090938100809380009B
S113053081E0089580E490E09093810080938000AE
S113054081E0089580E091E09093810080938000A1
S113055081E0089580E094E090938100809380008E
S113056081E0089580E0089581E0089589B781606D
S113057089BF81E0089589B78E7F89BF81E008959E
S113058089B78D7F89BF81E008952F923F924F9262
S11305905F926F927F928F929F92AF92BF92CF920F
S11305A0DF92EF92FF920F931F93CF93DF93CDB718
S11305B0DEB72E970FB6F894DEBF0FBECDBFA22EC6
S11305C0B32EC42ED52EE62EF72EE82FF92F09B61A
S11305D000FC03C009B601FE08C00115110509F4A9
S11305E0DAC010939400009393002A2D3B2D4C2DD8
S11305F05D2D6E2D7F2D8E2F9F2FA0E00E94F00584
S113060009F4CBC02115A1E03A0741055105610564
S113061071058105910579F170F12150314041094D
S1130620510961097109810991092F3F364041053A
S113063051056105710581059105F9F0F0F02A2D48
S11306403B2D4C2D5D2D6E2D7F2D8E2F9F2F2150F8
S113065038404109510961097109810991092F3F04
S1130660374141055105610571058105910509F081
S113067030F464E005C062E003C063E001C065E0FB
S11306801F2F0E2F80E00E944E020E94B60220917E
S113069080003091810040E050E060E072E18AE740
S11306A090E00E94010519012A01612C712C43017B
S11306B02E833F82488659866A867B868C869D86F1
S11306C0332D442D552D60E070E080E090E00E94D1
S11306D02305222E332E442E59836A837B838C83F5
S11306E09D83A12C6894BB24B6F80F2EF2E4CF2E80
S11306F0F02D0F2EFFE0DF2EF02DE12CF12C00E089
S113070010E00E947E053E874E83552E662E772E7E
S1130710882E992E20938B0030938C0040938D006B
S113072050928E0060928F0070929000809291009F
S1130730909292006894AA24A6F80F2EF2E4BF2E99
S1130740F02D0F2EFFE0CF2EF02DD12C222D332DA6
S1130750442D59816A817B818C819D810E947E0513
S11307602093820088B7816088BF20918B003E85EA
S11307704E81552D662D772D882D992DA0E00E9450
S1130780F00531F480918200819582BF81E006C03A
S113079012BE81E003C080E001C080E02E960FB657
S11307A0F894DEBF0FBECDBFDF91CF911F910F91A3
S11307B0FF90EF90DF90CF90BF90AF909F908F907D
S11307C07F906F905F904F903F902F9008950E947C
S11307D0BB020E94C00260E080E00E944E0288B723
S11307E0816088BF10928B0010928C0010928D0053
S11307F010928E0010928F0010929000109291002F
S11308001092920010928200109283001092840041
S11308101092850010928600109287001092880032
S11308201092890010928A0081E008951F920F921D
S11308300FB60F9211242F923F924F925F926F92B4
S11308407F928F929F92AF92BF92CF92DF92EF925C
S1130850FF920F931F932F933F934F935F936F9345
S11308607F938F939F93AF93BF93EF93FF93CF9314
S1130870DF9300D000D0CDB7DEB780908300909096
S11308808400809185008C83809186008B83B09155
S11308908700A0918800F0918900E0918A0020905F
S11308A08B0030908C0040908D0050908E006090B2
S11308B08F007090900080919100898380919200C4
S11308C08A83282D392D4C815B816B2F7A2F8F2FB2
S11308D09E2FA22CB32CC42CD52CE62CF72C0981EA
S11308E01A810E94E705A0F4A1E00E94DB05209391
S11308F08300309384004093850050938600609376
S11309008700709388008093890090938A0052C076
S1130910282D392D4C815B816B2F7A2F8F2F9E2FA1
S1130920A22CB32CC42CD52CE62CF72C09811A81CB
S11309300E94E70541F580918200809582BF209155
S1130940830030918400409185005091860060912D
S11309508700709188008091890090918A00A1E0BD
S11309600E94DB052093830030938400409385002C
S11309705093860060938700709388008093890069
S113098090938A0017C010928300109284001092F2
S113099085001092860010928700109288001092B1
S11309A0890010928A00E0919300F09194003097AE
S11309B009F009950F900F900F900F90DF91CF9150
S11309C0FF91EF91BF91AF919F918F917F916F9123
S11309D05F914F913F912F911F910F91FF90EF9055
S11309E0DF90CF90BF90AF909F908F907F906F904B
S11309F05F904F903F902F900F900FBE0F901F90DD
S1130A001895A1E21A2EAA1BBB1BFD010DC0AA1F3B
S1130A10BB1FEE1FFF1FA217B307E407F50720F063
S1130A20A21BB30BE40BF50B661F771F881F991FDE
S1130A301A9469F760957095809590959B01AC0127
S1130A40BD01CF010895DF93CF931F930F939A9D18
S1130A50F02D219FF00D8B9DF00D8A9DE02DF10D61
S1130A60039FF00D029FE00DF11D4E9DE00DF11D61
S1130A705E9DF00D4F9DF00D7F936F93BF92AF92EB
S1130A805F934F93D5010E94FC058B01AC01D70104
S1130A900E94FC05EB01E80FF91FD6010E947305C3
S1130AA02F913F91D6010E94FC05C60FD71FE81F66
S1130AB0F91FAF91BF910E9473052F913F910E943E
S1130AC0FC05C60FD71FE81FF91FD6010E94FC05BD
S1130AD0E60FF71F9801BE01CF0111240F911F915A
S1130AE0CF91DF9108950E94FC05460F571FC81F40
S1130AF0D91F08F431960895689401C0E8948F9240
S1130B009F92CF93DF930E948A05DF91CF919F90AC
S1130B108F90089588249924F401E401B0E49F930C
S1130B20AA279A158B049C04ED05FE05CF05D00772
S1130B30A10798F4AD2FDC2FCF2FFE2FE92D982C91
S1130B40892E982F872F762F652F542F432F322FDE
S1130B502227B85031F7BF9127C01B2EBF91BB2766
S1130B60220F331F441F551F661F771F881F991FAD
S1130B70881C991CEE1FFF1FCC1FDD1FAA1FBB1F63
S1130B808A149B04EC05FD05CE05DF05A007B1071B
S1130B9048F08A189B08EC09FD09CE09DF09A00B6F
S1130BA0B10B21601A94E1F62EF49401AF01BE0159
S1130BB0CD01000C08950024A7FD00942A0F301DD8
S1130BC0401D501D601D701D801D901D08952A1527
S1130BD03B054C055D056E057F058007910708956B
S1130BE00024A7FD00942A17300540055005600530
S1130BF07005800590050895A29FB001B39FC001C0
S1130C00A39F700D811D1124911DB29F700D811D34
S10D0C101124911D0895F894FFCFFC
S1130C1A01000000000000000000020000000000C3
S1130C2A00000000000000000000000000000000B6
S9030000FC
